{
  "contractName": "Casino",
  "abi": [
    {
      "constant": true,
      "inputs": [],
      "name": "numberOfBets",
      "outputs": [
        {
          "name": "",
          "type": "uint256"
        }
      ],
      "payable": false,
      "stateMutability": "view",
      "type": "function"
    },
    {
      "constant": true,
      "inputs": [],
      "name": "owner",
      "outputs": [
        {
          "name": "",
          "type": "address"
        }
      ],
      "payable": false,
      "stateMutability": "view",
      "type": "function"
    },
    {
      "constant": true,
      "inputs": [],
      "name": "minimumBet",
      "outputs": [
        {
          "name": "",
          "type": "uint256"
        }
      ],
      "payable": false,
      "stateMutability": "view",
      "type": "function"
    },
    {
      "constant": true,
      "inputs": [],
      "name": "randomNumber",
      "outputs": [
        {
          "name": "",
          "type": "uint256"
        }
      ],
      "payable": false,
      "stateMutability": "view",
      "type": "function"
    },
    {
      "constant": true,
      "inputs": [],
      "name": "maxAmountOfBets",
      "outputs": [
        {
          "name": "",
          "type": "uint256"
        }
      ],
      "payable": false,
      "stateMutability": "view",
      "type": "function"
    },
    {
      "constant": true,
      "inputs": [
        {
          "name": "",
          "type": "uint256"
        }
      ],
      "name": "players",
      "outputs": [
        {
          "name": "",
          "type": "address"
        }
      ],
      "payable": false,
      "stateMutability": "view",
      "type": "function"
    },
    {
      "constant": true,
      "inputs": [],
      "name": "totalBet",
      "outputs": [
        {
          "name": "",
          "type": "uint256"
        }
      ],
      "payable": false,
      "stateMutability": "view",
      "type": "function"
    },
    {
      "inputs": [
        {
          "name": "_minimumBet",
          "type": "uint256"
        },
        {
          "name": "_maxAmountOfBets",
          "type": "uint256"
        }
      ],
      "payable": false,
      "stateMutability": "nonpayable",
      "type": "constructor"
    },
    {
      "constant": false,
      "inputs": [],
      "name": "kill",
      "outputs": [],
      "payable": false,
      "stateMutability": "nonpayable",
      "type": "function"
    },
    {
      "constant": false,
      "inputs": [
        {
          "name": "player",
          "type": "address"
        }
      ],
      "name": "checkPlayerExists",
      "outputs": [
        {
          "name": "",
          "type": "bool"
        }
      ],
      "payable": false,
      "stateMutability": "nonpayable",
      "type": "function"
    },
    {
      "constant": false,
      "inputs": [
        {
          "name": "numberSelected",
          "type": "uint256"
        }
      ],
      "name": "bet",
      "outputs": [],
      "payable": true,
      "stateMutability": "payable",
      "type": "function"
    },
    {
      "constant": false,
      "inputs": [],
      "name": "generatedWinner",
      "outputs": [],
      "payable": false,
      "stateMutability": "nonpayable",
      "type": "function"
    },
    {
      "constant": false,
      "inputs": [],
      "name": "givePrize",
      "outputs": [],
      "payable": false,
      "stateMutability": "nonpayable",
      "type": "function"
    },
    {
      "constant": false,
      "inputs": [],
      "name": "resetGame",
      "outputs": [],
      "payable": false,
      "stateMutability": "nonpayable",
      "type": "function"
    }
  ],
  "bytecode": "0x6060604052600a600555341561001457600080fd5b604051604080610ab383398101604052808051906020019091908051906020019091905050336000806101000a81548173ffffffffffffffffffffffffffffffffffffffff021916908373ffffffffffffffffffffffffffffffffffffffff16021790555060008214151561008b57816001819055505b60008114151561009d57806005819055505b5050610a05806100ae6000396000f3006060604052600436106100c5576000357c0100000000000000000000000000000000000000000000000000000000900463ffffffff1680632b3edb69146100ca5780632ca8c6d3146100df5780634081d9161461010857806341c0e1b5146101595780637365870b1461016e5780638da5cb5b14610186578063bb472219146101db578063c38a8afd146101f0578063ccbac9f514610219578063e08a96cd14610242578063e65f49251461026b578063f71d96cb14610280578063fe5e1853146102e3575b600080fd5b34156100d557600080fd5b6100dd61030c565b005b34156100ea57600080fd5b6100f261032c565b6040518082815260200191505060405180910390f35b341561011357600080fd5b61013f600480803573ffffffffffffffffffffffffffffffffffffffff16906020019091905050610332565b604051808215151515815260200191505060405180910390f35b341561016457600080fd5b61016c6103d6565b005b6101846004808035906020019091905050610467565b005b341561019157600080fd5b6101996105d6565b604051808273ffffffffffffffffffffffffffffffffffffffff1673ffffffffffffffffffffffffffffffffffffffff16815260200191505060405180910390f35b34156101e657600080fd5b6101ee6105fb565b005b34156101fb57600080fd5b61020361061d565b6040518082815260200191505060405180910390f35b341561022457600080fd5b61022c610623565b6040518082815260200191505060405180910390f35b341561024d57600080fd5b610255610629565b6040518082815260200191505060405180910390f35b341561027657600080fd5b61027e61062f565b005b341561028b57600080fd5b6102a160048080359060200190919050506108d8565b604051808273ffffffffffffffffffffffffffffffffffffffff1673ffffffffffffffffffffffffffffffffffffffff16815260200191505060405180910390f35b34156102ee57600080fd5b6102f6610917565b6040518082815260200191505060405180910390f35b6001600a4381151561031a57fe5b060160048190555061032a61062f565b565b60035481565b600080600090505b6006805490508110156103cb578273ffffffffffffffffffffffffffffffffffffffff1660068281548110151561036d57fe5b906000526020600020900160009054906101000a900473ffffffffffffffffffffffffffffffffffffffff1673ffffffffffffffffffffffffffffffffffffffff1614156103be57600191506103d0565b808060010191505061033a565b600091505b50919050565b6000809054906101000a900473ffffffffffffffffffffffffffffffffffffffff1673ffffffffffffffffffffffffffffffffffffffff163373ffffffffffffffffffffffffffffffffffffffff161415610465576000809054906101000a900473ffffffffffffffffffffffffffffffffffffffff1673ffffffffffffffffffffffffffffffffffffffff16ff5b565b61047033610332565b15151561047c57600080fd5b6001811015801561048e5750600a8111155b151561049957600080fd5b60015434101515156104aa57600080fd5b34600760003373ffffffffffffffffffffffffffffffffffffffff1673ffffffffffffffffffffffffffffffffffffffff1681526020019081526020016000206000018190555080600760003373ffffffffffffffffffffffffffffffffffffffff1673ffffffffffffffffffffffffffffffffffffffff168152602001908152602001600020600101819055506003600081548092919060010191905055506006805480600101828161055e919061091d565b9160005260206000209001600033909190916101000a81548173ffffffffffffffffffffffffffffffffffffffff021916908373ffffffffffffffffffffffffffffffffffffffff16021790555050346002600082825401925050819055506005546003541015156105d3576105d261030c565b5b50565b6000809054906101000a900473ffffffffffffffffffffffffffffffffffffffff1681565b600060068161060a9190610949565b5060006002819055506000600381905550565b60015481565b60045481565b60055481565b610637610975565b60008060008060009350600092505b6006805490508310156107f3576004546007600060068681548110151561066957fe5b906000526020600020900160009054906101000a900473ffffffffffffffffffffffffffffffffffffffff1673ffffffffffffffffffffffffffffffffffffffff1673ffffffffffffffffffffffffffffffffffffffff16815260200190815260200160002060010154141561075a576006838154811015156106e857fe5b906000526020600020900160009054906101000a900473ffffffffffffffffffffffffffffffffffffffff16858560648110151561072257fe5b602002019073ffffffffffffffffffffffffffffffffffffffff16908173ffffffffffffffffffffffffffffffffffffffff16815250505b6007600060068581548110151561076d57fe5b906000526020600020900160009054906101000a900473ffffffffffffffffffffffffffffffffffffffff1673ffffffffffffffffffffffffffffffffffffffff1673ffffffffffffffffffffffffffffffffffffffff168152602001908152602001600020600080820160009055600182016000905550508280600101935050610646565b60006006816108029190610949565b50606460025481151561081157fe5b049150600090505b838110156108c957600073ffffffffffffffffffffffffffffffffffffffff16858260648110151561084757fe5b602002015173ffffffffffffffffffffffffffffffffffffffff161415156108bc57848160648110151561087757fe5b602002015173ffffffffffffffffffffffffffffffffffffffff166108fc839081150290604051600060405180830381858888f1935050505015156108bb57600080fd5b5b8080600101915050610819565b6108d16105fb565b5050505050565b6006818154811015156108e757fe5b90600052602060002090016000915054906101000a900473ffffffffffffffffffffffffffffffffffffffff1681565b60025481565b8154818355818115116109445781836000526020600020918201910161094391906109b4565b5b505050565b8154818355818115116109705781836000526020600020918201910161096f91906109b4565b5b505050565b610c80604051908101604052806064905b600073ffffffffffffffffffffffffffffffffffffffff168152602001906001900390816109865790505090565b6109d691905b808211156109d25760008160009055506001016109ba565b5090565b905600a165627a7a723058203f97012de7ac9aa40aef3a43c3dfbab0e7455cf97dcdd1254d87fa6ba91144ec0029",
  "source": "pragma solidity ^0.4.20;\n\ncontract Casino {\n   address public owner;\n   uint256 public minimumBet;\n   uint256 public totalBet;\n   uint256 public numberOfBets;\n   uint256 public randomNumber;\n   uint256 public maxAmountOfBets = 10;\n   address[] public players;\n   \n   struct Player {\n     uint256 amountBet;\n     uint256 numberSelected;\n   }\n   \n   mapping(address => Player) playerInfo;\n   \n   function Casino(uint256 _minimumBet, uint256 _maxAmountOfBets) {\n      owner = msg.sender;\n      if (_minimumBet != 0) minimumBet = _minimumBet;\n      if (_maxAmountOfBets != 0)maxAmountOfBets = _maxAmountOfBets;\n   }\n   \n   function kill() public {\n      if(msg.sender == owner) selfdestruct(owner);\n   }\n   \n   function checkPlayerExists(address player) returns(bool) {\n     for(uint256 i = 0;  i < players.length; i++) {\n        if (players[i] == player) return true;\n     }\n     return false;\n   }\n   \n   function bet(uint256 numberSelected) payable {\n      require(!checkPlayerExists(msg.sender));\n      require(numberSelected >= 1 && numberSelected <= 10);\n      require(msg.value >= minimumBet);\n      \n      playerInfo[msg.sender].amountBet = msg.value;\n      playerInfo[msg.sender].numberSelected = numberSelected;\n      numberOfBets++;\n      players.push(msg.sender);\n      totalBet += msg.value;\n      \n      if (numberOfBets >= maxAmountOfBets) generatedWinner();\n   }\n   \n   function generatedWinner() {\n      randomNumber = block.number % 10 + 1;\n      givePrize();\n   }\n   \n   function givePrize() {\n      address[100] memory winners;\n      uint256 count = 0;\n      \n      for (uint256 i = 0; i < players.length; i++) {\n        if (playerInfo[players[i]].numberSelected == randomNumber) {\n          winners[count] = players[i];\n        }\n        delete playerInfo[players[i]];\n      }\n      \n      players.length = 0;\n      uint256 winningEthAmount = totalBet / winners.length;\n      \n      for (uint256 j = 0; j < count; j++) {\n        if(winners[j] != address(0)) {\n          winners[j].transfer(winningEthAmount);\n        }\n      }\n      \n      resetGame();\n   }\n   \n   function resetGame() {\n     players.length = 0;\n     totalBet = 0;\n     numberOfBets = 0;\n   }\n}",
  "sourcePath": "/Users/lauken/Desktop/Project/betting-dapps/contracts/Casino.sol",
  "compiler": {
    "name": "solc",
    "version": "0.4.21+commit.dfe3193c.Emscripten.clang"
  },
  "schemaVersion": "2.0.0",
  "updatedAt": "2018-04-01T14:01:43.978Z"
}